{
  "contractName": "QuestionBase",
  "abi": [
    {
      "constant": false,
      "inputs": [
        {
          "name": "des",
          "type": "string"
        },
        {
          "name": "op1",
          "type": "string"
        },
        {
          "name": "op2",
          "type": "string"
        },
        {
          "name": "op3",
          "type": "string"
        },
        {
          "name": "op4",
          "type": "string"
        }
      ],
      "name": "postQuestion",
      "outputs": [
        {
          "name": "",
          "type": "uint256"
        }
      ],
      "payable": false,
      "stateMutability": "nonpayable",
      "type": "function"
    },
    {
      "constant": false,
      "inputs": [
        {
          "name": "id",
          "type": "uint256"
        },
        {
          "name": "index",
          "type": "uint256"
        }
      ],
      "name": "giveApprovalToOption",
      "outputs": [],
      "payable": false,
      "stateMutability": "nonpayable",
      "type": "function"
    },
    {
      "constant": false,
      "inputs": [
        {
          "name": "id",
          "type": "uint256"
        },
        {
          "name": "comment",
          "type": "string"
        }
      ],
      "name": "postComment",
      "outputs": [
        {
          "name": "",
          "type": "uint256"
        }
      ],
      "payable": false,
      "stateMutability": "nonpayable",
      "type": "function"
    },
    {
      "constant": true,
      "inputs": [],
      "name": "getQuestionsCount",
      "outputs": [
        {
          "name": "",
          "type": "uint256"
        }
      ],
      "payable": false,
      "stateMutability": "view",
      "type": "function"
    },
    {
      "constant": true,
      "inputs": [
        {
          "name": "id",
          "type": "uint256"
        }
      ],
      "name": "getCommentsCountOf",
      "outputs": [
        {
          "name": "",
          "type": "uint256"
        }
      ],
      "payable": false,
      "stateMutability": "view",
      "type": "function"
    },
    {
      "constant": true,
      "inputs": [
        {
          "name": "id",
          "type": "uint256"
        }
      ],
      "name": "getQuestionOf",
      "outputs": [
        {
          "name": "",
          "type": "string"
        },
        {
          "name": "",
          "type": "string"
        },
        {
          "name": "",
          "type": "string"
        },
        {
          "name": "",
          "type": "string"
        },
        {
          "name": "",
          "type": "string"
        },
        {
          "name": "",
          "type": "uint256[]"
        }
      ],
      "payable": false,
      "stateMutability": "view",
      "type": "function"
    },
    {
      "constant": true,
      "inputs": [
        {
          "name": "id",
          "type": "uint256"
        },
        {
          "name": "index",
          "type": "uint256"
        }
      ],
      "name": "getCommentOf",
      "outputs": [
        {
          "name": "",
          "type": "string"
        }
      ],
      "payable": false,
      "stateMutability": "view",
      "type": "function"
    },
    {
      "constant": true,
      "inputs": [
        {
          "name": "id",
          "type": "uint256"
        }
      ],
      "name": "getDescriptionOf",
      "outputs": [
        {
          "name": "",
          "type": "string"
        }
      ],
      "payable": false,
      "stateMutability": "view",
      "type": "function"
    },
    {
      "constant": true,
      "inputs": [
        {
          "name": "id",
          "type": "uint256"
        },
        {
          "name": "index",
          "type": "uint256"
        }
      ],
      "name": "getOptionOf",
      "outputs": [
        {
          "name": "",
          "type": "string"
        }
      ],
      "payable": false,
      "stateMutability": "view",
      "type": "function"
    },
    {
      "constant": true,
      "inputs": [
        {
          "name": "id",
          "type": "uint256"
        }
      ],
      "name": "getApprovalsOf",
      "outputs": [
        {
          "name": "",
          "type": "uint256[]"
        }
      ],
      "payable": false,
      "stateMutability": "view",
      "type": "function"
    }
  ],
  "bytecode": "0x608060405234801561001057600080fd5b506118a5806100206000396000f3006080604052600436106100a4576000357c0100000000000000000000000000000000000000000000000000000000900463ffffffff168063162b6c5d146100a9578063392ca1d7146101595780633c640a67146101db578063555d0927146102815780636661f36e146102b8578063865c2d06146105565780639b77a37d146106eb578063c2e112d21461072c578063ce010ffc14610757578063df757358146107de575b600080fd5b3480156100b557600080fd5b506100de600480360381019080803590602001909291908035906020019092919050505061088e565b6040518080602001828103825283818151815260200191508051906020019080838360005b8381101561011e578082015181840152602081019050610103565b50505050905090810190601f16801561014b5780820380516001836020036101000a031916815260200191505b509250505060405180910390f35b34801561016557600080fd5b506101846004803603810190808035906020019092919050505061099c565b6040518080602001828103825283818151815260200191508051906020019060200280838360005b838110156101c75780820151818401526020810190506101ac565b505050509050019250505060405180910390f35b3480156101e757600080fd5b5061020660048036038101908080359060200190929190505050610a63565b6040518080602001828103825283818151815260200191508051906020019080838360005b8381101561024657808201518184015260208101905061022b565b50505050905090810190601f1680156102735780820380516001836020036101000a031916815260200191505b509250505060405180910390f35b34801561028d57600080fd5b506102b66004803603810190808035906020019092919080359060200190929190505050610b45565b005b3480156102c457600080fd5b506102e360048036038101908080359060200190929190505050610bc4565b6040518080602001806020018060200180602001806020018060200187810387528d818151815260200191508051906020019080838360005b8381101561033757808201518184015260208101905061031c565b50505050905090810190601f1680156103645780820380516001836020036101000a031916815260200191505b5087810386528c818151815260200191508051906020019080838360005b8381101561039d578082015181840152602081019050610382565b50505050905090810190601f1680156103ca5780820380516001836020036101000a031916815260200191505b5087810385528b818151815260200191508051906020019080838360005b838110156104035780820151818401526020810190506103e8565b50505050905090810190601f1680156104305780820380516001836020036101000a031916815260200191505b5087810384528a818151815260200191508051906020019080838360005b8381101561046957808201518184015260208101905061044e565b50505050905090810190601f1680156104965780820380516001836020036101000a031916815260200191505b50878103835289818151815260200191508051906020019080838360005b838110156104cf5780820151818401526020810190506104b4565b50505050905090810190601f1680156104fc5780820380516001836020036101000a031916815260200191505b50878103825288818151815260200191508051906020019060200280838360005b8381101561053857808201518184015260208101905061051d565b505050509050019c5050505050505050505050505060405180910390f35b34801561056257600080fd5b506106d5600480360381019080803590602001908201803590602001908080601f0160208091040260200160405190810160405280939291908181526020018383808284378201915050505050509192919290803590602001908201803590602001908080601f0160208091040260200160405190810160405280939291908181526020018383808284378201915050505050509192919290803590602001908201803590602001908080601f0160208091040260200160405190810160405280939291908181526020018383808284378201915050505050509192919290803590602001908201803590602001908080601f0160208091040260200160405190810160405280939291908181526020018383808284378201915050505050509192919290803590602001908201803590602001908080601f0160208091040260200160405190810160405280939291908181526020018383808284378201915050505050509192919290505050610f5b565b6040518082815260200191505060405180910390f35b3480156106f757600080fd5b50610716600480360381019080803590602001909291905050506110db565b6040518082815260200191505060405180910390f35b34801561073857600080fd5b50610741611127565b6040518082815260200191505060405180910390f35b34801561076357600080fd5b506107c860048036038101908080359060200190929190803590602001908201803590602001908080601f0160208091040260200160405190810160405280939291908181526020018383808284378201915050505050509192919290505050611133565b6040518082815260200191505060405180910390f35b3480156107ea57600080fd5b5061081360048036038101908080359060200190929190803590602001909291905050506111e0565b6040518080602001828103825283818151815260200191508051906020019080838360005b83811015610853578082015181840152602081019050610838565b50505050905090810190601f1680156108805780820380516001836020036101000a031916815260200191505b509250505060405180910390f35b6060600083101580156108a5575060008054905083105b15156108b057600080fd5b600082101580156108c2575060038211155b15156108cd57600080fd5b6000838154811015156108dc57fe5b90600052602060002090600a0201600101826004811015156108fa57fe5b018054600181600116156101000203166002900480601f01602080910402602001604051908101604052809291908181526020018280546001816001161561010002031660029004801561098f5780601f106109645761010080835404028352916020019161098f565b820191906000526020600020905b81548152906001019060200180831161097257829003601f168201915b5050505050905092915050565b60608060008084101580156109b5575060008054905084105b15156109c057600080fd5b60046040519080825280602002602001820160405280156109f05781602001602082028038833980820191505090505b509150600090505b6004811015610a5957600084815481101515610a1057fe5b90600052602060002090600a020160050181600481101515610a2e57fe5b01548282815181101515610a3e57fe5b906020019060200201818152505080806001019150506109f8565b8192505050919050565b606060008210158015610a7a575060008054905082105b1515610a8557600080fd5b600082815481101515610a9457fe5b90600052602060002090600a02016000018054600181600116156101000203166002900480601f016020809104026020016040519081016040528092919081815260200182805460018160011615610100020316600290048015610b395780601f10610b0e57610100808354040283529160200191610b39565b820191906000526020600020905b815481529060010190602001808311610b1c57829003601f168201915b50505050509050919050565b60008210158015610b5a575060008054905082105b1515610b6557600080fd5b60008110158015610b77575060038111155b1515610b8257600080fd5b600082815481101515610b9157fe5b90600052602060002090600a020160050181600481101515610baf57fe5b01600081548092919060010191905055505050565b606080606080606080610bd5611521565b60008810158015610bea575060008054905088105b1515610bf557600080fd5b600088815481101515610c0457fe5b90600052602060002090600a020160806040519081016040529081600082018054600181600116156101000203166002900480601f016020809104026020016040519081016040528092919081815260200182805460018160011615610100020316600290048015610cb75780601f10610c8c57610100808354040283529160200191610cb7565b820191906000526020600020905b815481529060010190602001808311610c9a57829003601f168201915b5050505050815260200160018201600480602002604051908101604052809291906000905b82821015610d8f578382018054600181600116156101000203166002900480601f016020809104026020016040519081016040528092919081815260200182805460018160011615610100020316600290048015610d7b5780601f10610d5057610100808354040283529160200191610d7b565b820191906000526020600020905b815481529060010190602001808311610d5e57829003601f168201915b505050505081526020019060010190610cdc565b50505050815260200160058201600480602002604051908101604052809291908260048015610dd3576020028201915b815481526020019060010190808311610dbf575b5050505050815260200160098201805480602002602001604051908101604052809291908181526020016000905b82821015610ebd578382906000526020600020018054600181600116156101000203166002900480601f016020809104026020016040519081016040528092919081815260200182805460018160011615610100020316600290048015610ea95780601f10610e7e57610100808354040283529160200191610ea9565b820191906000526020600020905b815481529060010190602001808311610e8c57829003601f168201915b505050505081526020019060010190610e01565b50505050815250509050610ed088610a63565b81602001516000600481101515610ee357fe5b602002015182602001516001600481101515610efb57fe5b602002015183602001516002600481101515610f1357fe5b602002015184602001516003600481101515610f2b57fe5b6020020151610f398d61099c565b8494508393508292508191509650965096509650965096505091939550919395565b6000610f65611557565b6000610f6f61157a565b610f77611521565b600092505b6004831015610fab5760008484600481101515610f9557fe5b6020020181815250508280600101935050610f7c565b6080604051908101604052808a81526020018981526020018881526020018781525091506080604051908101604052808b8152602001838152602001858152602001600060405190808252806020026020018201604052801561102257816020015b606081526020019060019003908161100d5790505b5081525090506000819080600181540180825580915050906001820390600052602060002090600a02016000909192909190915060008201518160000190805190602001906110729291906115a2565b5060208201518160010190600461108a929190611622565b506040820151816005019060046110a2929190611675565b5060608201518160090190805190602001906110bf9291906116b5565b5050505060016000805490500394505050505095945050505050565b60008082101580156110f1575060008054905082105b15156110fc57600080fd5b60008281548110151561110b57fe5b90600052602060002090600a0201600901805490509050919050565b60008080549050905090565b6000808310158015611149575060008054905083105b151561115457600080fd5b60008381548110151561116357fe5b90600052602060002090600a02016009018290806001815401808255809150509060018203906000526020600020016000909192909190915090805190602001906111af929190611715565b505060016000848154811015156111c257fe5b90600052602060002090600a02016009018054905003905092915050565b60606111ea611521565b600084101580156111ff575060008054905084105b151561120a57600080fd5b60008481548110151561121957fe5b90600052602060002090600a020160806040519081016040529081600082018054600181600116156101000203166002900480601f0160208091040260200160405190810160405280929190818152602001828054600181600116156101000203166002900480156112cc5780601f106112a1576101008083540402835291602001916112cc565b820191906000526020600020905b8154815290600101906020018083116112af57829003601f168201915b5050505050815260200160018201600480602002604051908101604052809291906000905b828210156113a4578382018054600181600116156101000203166002900480601f0160208091040260200160405190810160405280929190818152602001828054600181600116156101000203166002900480156113905780601f1061136557610100808354040283529160200191611390565b820191906000526020600020905b81548152906001019060200180831161137357829003601f168201915b5050505050815260200190600101906112f1565b505050508152602001600582016004806020026040519081016040528092919082600480156113e8576020028201915b8154815260200190600101908083116113d4575b5050505050815260200160098201805480602002602001604051908101604052809291908181526020016000905b828210156114d2578382906000526020600020018054600181600116156101000203166002900480601f0160208091040260200160405190810160405280929190818152602001828054600181600116156101000203166002900480156114be5780601f10611493576101008083540402835291602001916114be565b820191906000526020600020905b8154815290600101906020018083116114a157829003601f168201915b505050505081526020019060010190611416565b50505050815250509050600083101580156114f1575080606001515183105b15156114fc57600080fd5b80606001518381518110151561150e57fe5b9060200190602002015191505092915050565b610140604051908101604052806060815260200161153d611795565b815260200161154a6117bd565b8152602001606081525090565b608060405190810160405280600490602082028038833980820191505090505090565b6080604051908101604052806004905b606081526020019060019003908161158a5790505090565b828054600181600116156101000203166002900490600052602060002090601f016020900481019282601f106115e357805160ff1916838001178555611611565b82800160010185558215611611579182015b828111156116105782518255916020019190600101906115f5565b5b50905061161e91906117e0565b5090565b8260048101928215611664579160200282015b828111156116635782518290805190602001906116539291906115a2565b5091602001919060010190611635565b5b5090506116719190611805565b5090565b82600481019282156116a4579160200282015b828111156116a3578251825591602001919060010190611688565b5b5090506116b191906117e0565b5090565b828054828255906000526020600020908101928215611704579160200282015b828111156117035782518290805190602001906116f39291906115a2565b50916020019190600101906116d5565b5b5090506117119190611805565b5090565b828054600181600116156101000203166002900490600052602060002090601f016020900481019282601f1061175657805160ff1916838001178555611784565b82800160010185558215611784579182015b82811115611783578251825591602001919060010190611768565b5b50905061179191906117e0565b5090565b6080604051908101604052806004905b60608152602001906001900390816117a55790505090565b608060405190810160405280600490602082028038833980820191505090505090565b61180291905b808211156117fe5760008160009055506001016117e6565b5090565b90565b61182e91905b8082111561182a57600081816118219190611831565b5060010161180b565b5090565b90565b50805460018160011615610100020316600290046000825580601f106118575750611876565b601f01602090049060005260206000209081019061187591906117e0565b5b505600a165627a7a7230582097ef0764d70ac0e6f260c8179b09f5c9bfa44e2fc6e79087145be707a27afb2f0029",
  "source": "pragma solidity ^0.4.24;\r\n\r\ncontract QuestionBase {\r\n\tstruct Question {\r\n\t\tstring description;\r\n\t\tstring[4] option;\r\n\t\tuint[4] approvalsOfOption;\r\n\t\tstring[] comments;\r\n\t}\r\n\r\n\tQuestion[] private questions;\r\n\r\n\tfunction postQuestion(string des, string op1, string op2, string op3, string op4) public returns (uint) {\r\n\t\tuint[4] memory approvals;\r\n\t\tfor (uint i = 0; i < 4; i++) {\r\n\t\t\tapprovals[i] = 0;\r\n\t\t}\r\n\t\tstring[4] memory op = [op1, op2, op3, op4];\r\n\t\tQuestion memory q = Question({\r\n\t\t\tdescription: des,\r\n\t\t\toption: op,\r\n\t\t\tapprovalsOfOption: approvals,\r\n\t\t\tcomments: new string[](0)\r\n\t\t});\r\n\t\tquestions.push(q);\r\n\t\treturn questions.length - 1;\r\n\t}\r\n\r\n\tfunction giveApprovalToOption(uint id, uint index) public {\r\n\t\trequire(id >= 0 && id < questions.length);\r\n\t\trequire(index >= 0 && index <= 3);\r\n\t\tquestions[id].approvalsOfOption[index]++;\r\n\t}\r\n\r\n\tfunction postComment(uint id, string comment) public returns (uint) {\r\n\t\trequire(id >= 0 && id < questions.length);\r\n\t\tquestions[id].comments.push(comment);\r\n\t\treturn questions[id].comments.length - 1;\r\n\t}\r\n\r\n\tfunction getQuestionsCount() public view returns (uint) {\r\n\t\treturn questions.length;\r\n\t}\r\n\r\n\tfunction getCommentsCountOf(uint id) public view returns (uint) {\r\n\t\trequire(id >= 0 && id < questions.length);\r\n\t\treturn questions[id].comments.length;\r\n\t}\r\n\r\n\tfunction getQuestionOf(uint id) public view returns (string, string, string, string, string, uint[]) {\r\n\t\trequire(id >= 0 && id < questions.length);\r\n\t\tQuestion memory q = questions[id];\r\n\t\treturn (getDescriptionOf(id), q.option[0], q.option[1], q.option[2], q.option[3], getApprovalsOf(id));\r\n\t}\r\n\r\n\tfunction getCommentOf(uint id, uint index) public view returns (string) {\r\n\t\trequire(id >= 0 && id < questions.length);\r\n\t\tQuestion memory q = questions[id];\r\n\t\trequire(index >= 0 && index < q.comments.length);\r\n\t\treturn q.comments[index];\r\n\t}\r\n\r\n\tfunction getDescriptionOf(uint id) public view returns (string) {\r\n\t\trequire(id >= 0 && id < questions.length);\r\n\t\treturn questions[id].description;\r\n\t}\r\n\r\n\tfunction getOptionOf(uint id, uint index) public view returns (string) {\r\n\t\trequire(id >= 0 && id < questions.length);\r\n\t\trequire(index >= 0 && index <= 3);\r\n\t\treturn questions[id].option[index];\r\n\t}\r\n\r\n\tfunction getApprovalsOf(uint id) public view returns (uint[]) {\r\n\t\trequire(id >= 0 && id < questions.length);\r\n\t\tuint[] memory approvals = new uint[](4);\r\n\t\tfor (uint i = 0; i < 4; i++) {\r\n\t\t\tapprovals[i] = questions[id].approvalsOfOption[i];\r\n\t\t}\r\n\t\treturn approvals;\r\n\t}\r\n}\r\n",
  "sourcePath": "D:\\truffle\\ask-answer\\contracts\\QuestionBase.sol",
  "compiler": {
    "name": "solc",
    "version": "0.4.24+commit.e67f0147.Emscripten.clang"
  },
  "schemaVersion": "2.0.0",
  "updatedAt": "2018-12-31T15:07:22.467Z"
}